{
  "contractName": "BCToken",
  "abi": [
    {
      "inputs": [],
      "stateMutability": "nonpayable",
      "type": "constructor"
    },
    {
      "anonymous": false,
      "inputs": [
        {
          "indexed": true,
          "internalType": "address",
          "name": "owner",
          "type": "address"
        },
        {
          "indexed": true,
          "internalType": "address",
          "name": "spender",
          "type": "address"
        },
        {
          "indexed": false,
          "internalType": "uint256",
          "name": "value",
          "type": "uint256"
        }
      ],
      "name": "Approval",
      "type": "event"
    },
    {
      "anonymous": false,
      "inputs": [
        {
          "indexed": true,
          "internalType": "address",
          "name": "from",
          "type": "address"
        },
        {
          "indexed": true,
          "internalType": "address",
          "name": "to",
          "type": "address"
        },
        {
          "indexed": false,
          "internalType": "uint256",
          "name": "value",
          "type": "uint256"
        }
      ],
      "name": "Transfer",
      "type": "event"
    },
    {
      "inputs": [],
      "name": "admin",
      "outputs": [
        {
          "internalType": "address",
          "name": "",
          "type": "address"
        }
      ],
      "stateMutability": "view",
      "type": "function",
      "constant": true
    },
    {
      "inputs": [
        {
          "internalType": "address",
          "name": "owner",
          "type": "address"
        },
        {
          "internalType": "address",
          "name": "spender",
          "type": "address"
        }
      ],
      "name": "allowance",
      "outputs": [
        {
          "internalType": "uint256",
          "name": "",
          "type": "uint256"
        }
      ],
      "stateMutability": "view",
      "type": "function",
      "constant": true
    },
    {
      "inputs": [
        {
          "internalType": "address",
          "name": "spender",
          "type": "address"
        },
        {
          "internalType": "uint256",
          "name": "amount",
          "type": "uint256"
        }
      ],
      "name": "approve",
      "outputs": [
        {
          "internalType": "bool",
          "name": "",
          "type": "bool"
        }
      ],
      "stateMutability": "nonpayable",
      "type": "function"
    },
    {
      "inputs": [
        {
          "internalType": "address",
          "name": "account",
          "type": "address"
        }
      ],
      "name": "balanceOf",
      "outputs": [
        {
          "internalType": "uint256",
          "name": "",
          "type": "uint256"
        }
      ],
      "stateMutability": "view",
      "type": "function",
      "constant": true
    },
    {
      "inputs": [],
      "name": "decimals",
      "outputs": [
        {
          "internalType": "uint8",
          "name": "",
          "type": "uint8"
        }
      ],
      "stateMutability": "view",
      "type": "function",
      "constant": true
    },
    {
      "inputs": [
        {
          "internalType": "address",
          "name": "spender",
          "type": "address"
        },
        {
          "internalType": "uint256",
          "name": "subtractedValue",
          "type": "uint256"
        }
      ],
      "name": "decreaseAllowance",
      "outputs": [
        {
          "internalType": "bool",
          "name": "",
          "type": "bool"
        }
      ],
      "stateMutability": "nonpayable",
      "type": "function"
    },
    {
      "inputs": [
        {
          "internalType": "address",
          "name": "spender",
          "type": "address"
        },
        {
          "internalType": "uint256",
          "name": "addedValue",
          "type": "uint256"
        }
      ],
      "name": "increaseAllowance",
      "outputs": [
        {
          "internalType": "bool",
          "name": "",
          "type": "bool"
        }
      ],
      "stateMutability": "nonpayable",
      "type": "function"
    },
    {
      "inputs": [],
      "name": "name",
      "outputs": [
        {
          "internalType": "string",
          "name": "",
          "type": "string"
        }
      ],
      "stateMutability": "view",
      "type": "function",
      "constant": true
    },
    {
      "inputs": [],
      "name": "symbol",
      "outputs": [
        {
          "internalType": "string",
          "name": "",
          "type": "string"
        }
      ],
      "stateMutability": "view",
      "type": "function",
      "constant": true
    },
    {
      "inputs": [],
      "name": "totalSupply",
      "outputs": [
        {
          "internalType": "uint256",
          "name": "",
          "type": "uint256"
        }
      ],
      "stateMutability": "view",
      "type": "function",
      "constant": true
    },
    {
      "inputs": [
        {
          "internalType": "address",
          "name": "to",
          "type": "address"
        },
        {
          "internalType": "uint256",
          "name": "amount",
          "type": "uint256"
        }
      ],
      "name": "transfer",
      "outputs": [
        {
          "internalType": "bool",
          "name": "",
          "type": "bool"
        }
      ],
      "stateMutability": "nonpayable",
      "type": "function"
    },
    {
      "inputs": [
        {
          "internalType": "address",
          "name": "from",
          "type": "address"
        },
        {
          "internalType": "address",
          "name": "to",
          "type": "address"
        },
        {
          "internalType": "uint256",
          "name": "amount",
          "type": "uint256"
        }
      ],
      "name": "transferFrom",
      "outputs": [
        {
          "internalType": "bool",
          "name": "",
          "type": "bool"
        }
      ],
      "stateMutability": "nonpayable",
      "type": "function"
    },
    {
      "inputs": [
        {
          "internalType": "address",
          "name": "account",
          "type": "address"
        }
      ],
      "name": "balanceOfUser",
      "outputs": [
        {
          "internalType": "uint256",
          "name": "",
          "type": "uint256"
        }
      ],
      "stateMutability": "view",
      "type": "function",
      "constant": true
    },
    {
      "inputs": [
        {
          "internalType": "address",
          "name": "to",
          "type": "address"
        },
        {
          "internalType": "uint256",
          "name": "amount",
          "type": "uint256"
        }
      ],
      "name": "transferTo",
      "outputs": [],
      "stateMutability": "nonpayable",
      "type": "function"
    },
    {
      "inputs": [
        {
          "internalType": "uint256",
          "name": "amount",
          "type": "uint256"
        }
      ],
      "name": "burn",
      "outputs": [],
      "stateMutability": "nonpayable",
      "type": "function"
    }
  ],
  "bytecode": "0x60806040523480156200001157600080fd5b506040518060400160405280600881526020017f4243546f6b656e730000000000000000000000000000000000000000000000008152506040518060400160405280600381526020017f424354000000000000000000000000000000000000000000000000000000000081525081600390805190602001906200009692919062000296565b508060049080519060200190620000af92919062000296565b505050620000cd33683635c9adc5dea000006200011460201b60201c565b33600560006101000a81548173ffffffffffffffffffffffffffffffffffffffff021916908373ffffffffffffffffffffffffffffffffffffffff160217905550620004f1565b600073ffffffffffffffffffffffffffffffffffffffff168273ffffffffffffffffffffffffffffffffffffffff160362000186576040517f08c379a00000000000000000000000000000000000000000000000000000000081526004016200017d90620003a7565b60405180910390fd5b6200019a600083836200028c60201b60201c565b8060026000828254620001ae919062000402565b92505081905550806000808473ffffffffffffffffffffffffffffffffffffffff1673ffffffffffffffffffffffffffffffffffffffff168152602001908152602001600020600082825462000205919062000402565b925050819055508173ffffffffffffffffffffffffffffffffffffffff16600073ffffffffffffffffffffffffffffffffffffffff167fddf252ad1be2c89b69c2b068fc378daa952ba7f163c4a11628f55a4df523b3ef836040516200026c919062000470565b60405180910390a362000288600083836200029160201b60201c565b5050565b505050565b505050565b828054620002a490620004bc565b90600052602060002090601f016020900481019282620002c8576000855562000314565b82601f10620002e357805160ff191683800117855562000314565b8280016001018555821562000314579182015b8281111562000313578251825591602001919060010190620002f6565b5b50905062000323919062000327565b5090565b5b808211156200034257600081600090555060010162000328565b5090565b600082825260208201905092915050565b7f45524332303a206d696e7420746f20746865207a65726f206164647265737300600082015250565b60006200038f601f8362000346565b91506200039c8262000357565b602082019050919050565b60006020820190508181036000830152620003c28162000380565b9050919050565b6000819050919050565b7f4e487b7100000000000000000000000000000000000000000000000000000000600052601160045260246000fd5b60006200040f82620003c9565b91506200041c83620003c9565b9250827fffffffffffffffffffffffffffffffffffffffffffffffffffffffffffffffff03821115620004545762000453620003d3565b5b828201905092915050565b6200046a81620003c9565b82525050565b60006020820190506200048760008301846200045f565b92915050565b7f4e487b7100000000000000000000000000000000000000000000000000000000600052602260045260246000fd5b60006002820490506001821680620004d557607f821691505b602082108103620004eb57620004ea6200048d565b5b50919050565b6117f480620005016000396000f3fe608060405234801561001057600080fd5b50600436106100f55760003560e01c80633950935111610097578063a457c2d711610066578063a457c2d71461029a578063a9059cbb146102ca578063dd62ed3e146102fa578063f851a4401461032a576100f5565b8063395093511461020057806342966c681461023057806370a082311461024c57806395d89b411461027c576100f5565b806318160ddd116100d357806318160ddd1461017857806323b872dd146101965780632ccb1b30146101c6578063313ce567146101e2576100f5565b806306fdde03146100fa578063095ea7b31461011857806312cae7af14610148575b600080fd5b610102610348565b60405161010f9190610f00565b60405180910390f35b610132600480360381019061012d9190610fbb565b6103da565b60405161013f9190611016565b60405180910390f35b610162600480360381019061015d9190611031565b6103fd565b60405161016f919061106d565b60405180910390f35b61018061040f565b60405161018d919061106d565b60405180910390f35b6101b060048036038101906101ab9190611088565b610419565b6040516101bd9190611016565b60405180910390f35b6101e060048036038101906101db9190610fbb565b610448565b005b6101ea610457565b6040516101f791906110f7565b60405180910390f35b61021a60048036038101906102159190610fbb565b610460565b6040516102279190611016565b60405180910390f35b61024a60048036038101906102459190611112565b61050a565b005b61026660048036038101906102619190611031565b610517565b604051610273919061106d565b60405180910390f35b61028461055f565b6040516102919190610f00565b60405180910390f35b6102b460048036038101906102af9190610fbb565b6105f1565b6040516102c19190611016565b60405180910390f35b6102e460048036038101906102df9190610fbb565b6106db565b6040516102f19190611016565b60405180910390f35b610314600480360381019061030f919061113f565b6106fe565b604051610321919061106d565b60405180910390f35b610332610785565b60405161033f919061118e565b60405180910390f35b606060038054610357906111d8565b80601f0160208091040260200160405190810160405280929190818152602001828054610383906111d8565b80156103d05780601f106103a5576101008083540402835291602001916103d0565b820191906000526020600020905b8154815290600101906020018083116103b357829003601f168201915b5050505050905090565b6000806103e56107ab565b90506103f28185856107b3565b600191505092915050565b600061040882610517565b9050919050565b6000600254905090565b6000806104246107ab565b905061043185828561097c565b61043c858585610a08565b60019150509392505050565b610453338383610a08565b5050565b60006012905090565b60008061046b6107ab565b90506104ff818585600160008673ffffffffffffffffffffffffffffffffffffffff1673ffffffffffffffffffffffffffffffffffffffff16815260200190815260200160002060008973ffffffffffffffffffffffffffffffffffffffff1673ffffffffffffffffffffffffffffffffffffffff168152602001908152602001600020546104fa9190611238565b6107b3565b600191505092915050565b6105143382610c87565b50565b60008060008373ffffffffffffffffffffffffffffffffffffffff1673ffffffffffffffffffffffffffffffffffffffff168152602001908152602001600020549050919050565b60606004805461056e906111d8565b80601f016020809104026020016040519081016040528092919081815260200182805461059a906111d8565b80156105e75780601f106105bc576101008083540402835291602001916105e7565b820191906000526020600020905b8154815290600101906020018083116105ca57829003601f168201915b5050505050905090565b6000806105fc6107ab565b90506000600160008373ffffffffffffffffffffffffffffffffffffffff1673ffffffffffffffffffffffffffffffffffffffff16815260200190815260200160002060008673ffffffffffffffffffffffffffffffffffffffff1673ffffffffffffffffffffffffffffffffffffffff168152602001908152602001600020549050838110156106c2576040517f08c379a00000000000000000000000000000000000000000000000000000000081526004016106b990611300565b60405180910390fd5b6106cf82868684036107b3565b60019250505092915050565b6000806106e66107ab565b90506106f3818585610a08565b600191505092915050565b6000600160008473ffffffffffffffffffffffffffffffffffffffff1673ffffffffffffffffffffffffffffffffffffffff16815260200190815260200160002060008373ffffffffffffffffffffffffffffffffffffffff1673ffffffffffffffffffffffffffffffffffffffff16815260200190815260200160002054905092915050565b600560009054906101000a900473ffffffffffffffffffffffffffffffffffffffff1681565b600033905090565b600073ffffffffffffffffffffffffffffffffffffffff168373ffffffffffffffffffffffffffffffffffffffff1603610822576040517f08c379a000000000000000000000000000000000000000000000000000000000815260040161081990611392565b60405180910390fd5b600073ffffffffffffffffffffffffffffffffffffffff168273ffffffffffffffffffffffffffffffffffffffff1603610891576040517f08c379a000000000000000000000000000000000000000000000000000000000815260040161088890611424565b60405180910390fd5b80600160008573ffffffffffffffffffffffffffffffffffffffff1673ffffffffffffffffffffffffffffffffffffffff16815260200190815260200160002060008473ffffffffffffffffffffffffffffffffffffffff1673ffffffffffffffffffffffffffffffffffffffff168152602001908152602001600020819055508173ffffffffffffffffffffffffffffffffffffffff168373ffffffffffffffffffffffffffffffffffffffff167f8c5be1e5ebec7d5bd14f71427d1e84f3dd0314c0f7b2291e5b200ac8c7c3b9258360405161096f919061106d565b60405180910390a3505050565b600061098884846106fe565b90507fffffffffffffffffffffffffffffffffffffffffffffffffffffffffffffffff8114610a0257818110156109f4576040517f08c379a00000000000000000000000000000000000000000000000000000000081526004016109eb90611490565b60405180910390fd5b610a0184848484036107b3565b5b50505050565b600073ffffffffffffffffffffffffffffffffffffffff168373ffffffffffffffffffffffffffffffffffffffff1603610a77576040517f08c379a0000000000000000000000000000000000000000000000000000000008152600401610a6e90611522565b60405180910390fd5b600073ffffffffffffffffffffffffffffffffffffffff168273ffffffffffffffffffffffffffffffffffffffff1603610ae6576040517f08c379a0000000000000000000000000000000000000000000000000000000008152600401610add906115b4565b60405180910390fd5b610af1838383610e5d565b60008060008573ffffffffffffffffffffffffffffffffffffffff1673ffffffffffffffffffffffffffffffffffffffff16815260200190815260200160002054905081811015610b77576040517f08c379a0000000000000000000000000000000000000000000000000000000008152600401610b6e90611646565b60405180910390fd5b8181036000808673ffffffffffffffffffffffffffffffffffffffff1673ffffffffffffffffffffffffffffffffffffffff16815260200190815260200160002081905550816000808573ffffffffffffffffffffffffffffffffffffffff1673ffffffffffffffffffffffffffffffffffffffff1681526020019081526020016000206000828254610c0a9190611238565b925050819055508273ffffffffffffffffffffffffffffffffffffffff168473ffffffffffffffffffffffffffffffffffffffff167fddf252ad1be2c89b69c2b068fc378daa952ba7f163c4a11628f55a4df523b3ef84604051610c6e919061106d565b60405180910390a3610c81848484610e62565b50505050565b600073ffffffffffffffffffffffffffffffffffffffff168273ffffffffffffffffffffffffffffffffffffffff1603610cf6576040517f08c379a0000000000000000000000000000000000000000000000000000000008152600401610ced906116d8565b60405180910390fd5b610d0282600083610e5d565b60008060008473ffffffffffffffffffffffffffffffffffffffff1673ffffffffffffffffffffffffffffffffffffffff16815260200190815260200160002054905081811015610d88576040517f08c379a0000000000000000000000000000000000000000000000000000000008152600401610d7f9061176a565b60405180910390fd5b8181036000808573ffffffffffffffffffffffffffffffffffffffff1673ffffffffffffffffffffffffffffffffffffffff168152602001908152602001600020819055508160026000828254610ddf919061178a565b92505081905550600073ffffffffffffffffffffffffffffffffffffffff168373ffffffffffffffffffffffffffffffffffffffff167fddf252ad1be2c89b69c2b068fc378daa952ba7f163c4a11628f55a4df523b3ef84604051610e44919061106d565b60405180910390a3610e5883600084610e62565b505050565b505050565b505050565b600081519050919050565b600082825260208201905092915050565b60005b83811015610ea1578082015181840152602081019050610e86565b83811115610eb0576000848401525b50505050565b6000601f19601f8301169050919050565b6000610ed282610e67565b610edc8185610e72565b9350610eec818560208601610e83565b610ef581610eb6565b840191505092915050565b60006020820190508181036000830152610f1a8184610ec7565b905092915050565b600080fd5b600073ffffffffffffffffffffffffffffffffffffffff82169050919050565b6000610f5282610f27565b9050919050565b610f6281610f47565b8114610f6d57600080fd5b50565b600081359050610f7f81610f59565b92915050565b6000819050919050565b610f9881610f85565b8114610fa357600080fd5b50565b600081359050610fb581610f8f565b92915050565b60008060408385031215610fd257610fd1610f22565b5b6000610fe085828601610f70565b9250506020610ff185828601610fa6565b9150509250929050565b60008115159050919050565b61101081610ffb565b82525050565b600060208201905061102b6000830184611007565b92915050565b60006020828403121561104757611046610f22565b5b600061105584828501610f70565b91505092915050565b61106781610f85565b82525050565b6000602082019050611082600083018461105e565b92915050565b6000806000606084860312156110a1576110a0610f22565b5b60006110af86828701610f70565b93505060206110c086828701610f70565b92505060406110d186828701610fa6565b9150509250925092565b600060ff82169050919050565b6110f1816110db565b82525050565b600060208201905061110c60008301846110e8565b92915050565b60006020828403121561112857611127610f22565b5b600061113684828501610fa6565b91505092915050565b6000806040838503121561115657611155610f22565b5b600061116485828601610f70565b925050602061117585828601610f70565b9150509250929050565b61118881610f47565b82525050565b60006020820190506111a3600083018461117f565b92915050565b7f4e487b7100000000000000000000000000000000000000000000000000000000600052602260045260246000fd5b600060028204905060018216806111f057607f821691505b602082108103611203576112026111a9565b5b50919050565b7f4e487b7100000000000000000000000000000000000000000000000000000000600052601160045260246000fd5b600061124382610f85565b915061124e83610f85565b9250827fffffffffffffffffffffffffffffffffffffffffffffffffffffffffffffffff0382111561128357611282611209565b5b828201905092915050565b7f45524332303a2064656372656173656420616c6c6f77616e63652062656c6f7760008201527f207a65726f000000000000000000000000000000000000000000000000000000602082015250565b60006112ea602583610e72565b91506112f58261128e565b604082019050919050565b60006020820190508181036000830152611319816112dd565b9050919050565b7f45524332303a20617070726f76652066726f6d20746865207a65726f2061646460008201527f7265737300000000000000000000000000000000000000000000000000000000602082015250565b600061137c602483610e72565b915061138782611320565b604082019050919050565b600060208201905081810360008301526113ab8161136f565b9050919050565b7f45524332303a20617070726f766520746f20746865207a65726f20616464726560008201527f7373000000000000000000000000000000000000000000000000000000000000602082015250565b600061140e602283610e72565b9150611419826113b2565b604082019050919050565b6000602082019050818103600083015261143d81611401565b9050919050565b7f45524332303a20696e73756666696369656e7420616c6c6f77616e6365000000600082015250565b600061147a601d83610e72565b915061148582611444565b602082019050919050565b600060208201905081810360008301526114a98161146d565b9050919050565b7f45524332303a207472616e736665722066726f6d20746865207a65726f20616460008201527f6472657373000000000000000000000000000000000000000000000000000000602082015250565b600061150c602583610e72565b9150611517826114b0565b604082019050919050565b6000602082019050818103600083015261153b816114ff565b9050919050565b7f45524332303a207472616e7366657220746f20746865207a65726f206164647260008201527f6573730000000000000000000000000000000000000000000000000000000000602082015250565b600061159e602383610e72565b91506115a982611542565b604082019050919050565b600060208201905081810360008301526115cd81611591565b9050919050565b7f45524332303a207472616e7366657220616d6f756e742065786365656473206260008201527f616c616e63650000000000000000000000000000000000000000000000000000602082015250565b6000611630602683610e72565b915061163b826115d4565b604082019050919050565b6000602082019050818103600083015261165f81611623565b9050919050565b7f45524332303a206275726e2066726f6d20746865207a65726f2061646472657360008201527f7300000000000000000000000000000000000000000000000000000000000000602082015250565b60006116c2602183610e72565b91506116cd82611666565b604082019050919050565b600060208201905081810360008301526116f1816116b5565b9050919050565b7f45524332303a206275726e20616d6f756e7420657863656564732062616c616e60008201527f6365000000000000000000000000000000000000000000000000000000000000602082015250565b6000611754602283610e72565b915061175f826116f8565b604082019050919050565b6000602082019050818103600083015261178381611747565b9050919050565b600061179582610f85565b91506117a083610f85565b9250828210156117b3576117b2611209565b5b82820390509291505056fea2646970667358221220bb36ac198d43f4615c6cd140608e6506797ad74877d93864439a3a6c77b91e0a64736f6c634300080d0033",
  "immutableReferences": {},
  "source": "// SPDX-License-Identifier: MIT\r\n// OpenZeppelin Contracts (last updated v4.5.0) (token/ERC20/ERC20.sol)\r\npragma solidity ^0.8.0;\r\n\r\nimport \"@openzeppelin/contracts/token/ERC20/ERC20.sol\";\r\n\r\ncontract BCToken is ERC20 {\r\n    address public admin;\r\n\r\n    constructor() ERC20(\"BCTokens\", \"BCT\") {\r\n        _mint(msg.sender, 1000 * 10**18);\r\n        admin = msg.sender;\r\n    }\r\n\r\n    function balanceOfUser(address account) public view returns (uint256) {\r\n        return balanceOf(account);\r\n    }\r\n\r\n    function transferTo(address to, uint256 amount) external {\r\n        _transfer(msg.sender, to, amount);\r\n    }\r\n\r\n    function mint(address to, uint256 amount) private {\r\n        require(msg.sender == admin, \"Only Admin!!\");\r\n        _mint(to, amount);\r\n    }\r\n\r\n    function burn(uint256 amount) external {\r\n        _burn(msg.sender, amount);\r\n    }\r\n}\r\n",
  "sourcePath": "D:\\project\\blockchain\\btp\\blogweb\\src\\contracts\\token.sol",
  "compiler": {
    "name": "solc",
    "version": "0.8.13+commit.abaa5c0e.Emscripten.clang"
  },
  "schemaVersion": "3.4.5",
  "updatedAt": "2022-04-10T11:28:20.964Z",
  "networkType": "ethereum",
  "devdoc": {
    "kind": "dev",
    "methods": {
      "allowance(address,address)": {
        "details": "See {IERC20-allowance}."
      },
      "approve(address,uint256)": {
        "details": "See {IERC20-approve}. NOTE: If `amount` is the maximum `uint256`, the allowance is not updated on `transferFrom`. This is semantically equivalent to an infinite approval. Requirements: - `spender` cannot be the zero address."
      },
      "balanceOf(address)": {
        "details": "See {IERC20-balanceOf}."
      },
      "decimals()": {
        "details": "Returns the number of decimals used to get its user representation. For example, if `decimals` equals `2`, a balance of `505` tokens should be displayed to a user as `5.05` (`505 / 10 ** 2`). Tokens usually opt for a value of 18, imitating the relationship between Ether and Wei. This is the value {ERC20} uses, unless this function is overridden; NOTE: This information is only used for _display_ purposes: it in no way affects any of the arithmetic of the contract, including {IERC20-balanceOf} and {IERC20-transfer}."
      },
      "decreaseAllowance(address,uint256)": {
        "details": "Atomically decreases the allowance granted to `spender` by the caller. This is an alternative to {approve} that can be used as a mitigation for problems described in {IERC20-approve}. Emits an {Approval} event indicating the updated allowance. Requirements: - `spender` cannot be the zero address. - `spender` must have allowance for the caller of at least `subtractedValue`."
      },
      "increaseAllowance(address,uint256)": {
        "details": "Atomically increases the allowance granted to `spender` by the caller. This is an alternative to {approve} that can be used as a mitigation for problems described in {IERC20-approve}. Emits an {Approval} event indicating the updated allowance. Requirements: - `spender` cannot be the zero address."
      },
      "name()": {
        "details": "Returns the name of the token."
      },
      "symbol()": {
        "details": "Returns the symbol of the token, usually a shorter version of the name."
      },
      "totalSupply()": {
        "details": "See {IERC20-totalSupply}."
      },
      "transfer(address,uint256)": {
        "details": "See {IERC20-transfer}. Requirements: - `to` cannot be the zero address. - the caller must have a balance of at least `amount`."
      },
      "transferFrom(address,address,uint256)": {
        "details": "See {IERC20-transferFrom}. Emits an {Approval} event indicating the updated allowance. This is not required by the EIP. See the note at the beginning of {ERC20}. NOTE: Does not update the allowance if the current allowance is the maximum `uint256`. Requirements: - `from` and `to` cannot be the zero address. - `from` must have a balance of at least `amount`. - the caller must have allowance for ``from``'s tokens of at least `amount`."
      }
    },
    "version": 1
  },
  "userdoc": {
    "kind": "user",
    "methods": {},
    "version": 1
  }
}