{
  "contractName": "BlogFactory",
  "abi": [
    {
      "anonymous": false,
      "inputs": [
        {
          "indexed": false,
          "internalType": "uint256",
          "name": "blogId",
          "type": "uint256"
        },
        {
          "indexed": false,
          "internalType": "string",
          "name": "title",
          "type": "string"
        },
        {
          "indexed": false,
          "internalType": "string",
          "name": "content",
          "type": "string"
        },
        {
          "indexed": false,
          "internalType": "uint256",
          "name": "blogHash",
          "type": "uint256"
        }
      ],
      "name": "NewBlog",
      "type": "event"
    },
    {
      "constant": true,
      "inputs": [
        {
          "internalType": "uint256",
          "name": "",
          "type": "uint256"
        }
      ],
      "name": "blogToOwner",
      "outputs": [
        {
          "internalType": "address",
          "name": "",
          "type": "address"
        }
      ],
      "payable": false,
      "stateMutability": "view",
      "type": "function"
    },
    {
      "constant": true,
      "inputs": [
        {
          "internalType": "uint256",
          "name": "",
          "type": "uint256"
        }
      ],
      "name": "blogs",
      "outputs": [
        {
          "internalType": "string",
          "name": "title",
          "type": "string"
        },
        {
          "internalType": "string",
          "name": "content",
          "type": "string"
        },
        {
          "internalType": "address",
          "name": "publisher",
          "type": "address"
        },
        {
          "internalType": "uint256",
          "name": "blogHash",
          "type": "uint256"
        }
      ],
      "payable": false,
      "stateMutability": "view",
      "type": "function"
    },
    {
      "constant": true,
      "inputs": [
        {
          "internalType": "address",
          "name": "",
          "type": "address"
        }
      ],
      "name": "userBlogCount",
      "outputs": [
        {
          "internalType": "uint256",
          "name": "",
          "type": "uint256"
        }
      ],
      "payable": false,
      "stateMutability": "view",
      "type": "function"
    },
    {
      "constant": false,
      "inputs": [
        {
          "internalType": "string",
          "name": "_title",
          "type": "string"
        },
        {
          "internalType": "string",
          "name": "_content",
          "type": "string"
        }
      ],
      "name": "createBlog",
      "outputs": [],
      "payable": false,
      "stateMutability": "nonpayable",
      "type": "function"
    },
    {
      "constant": true,
      "inputs": [
        {
          "internalType": "uint256",
          "name": "blogIndex",
          "type": "uint256"
        }
      ],
      "name": "getBlog",
      "outputs": [
        {
          "internalType": "string",
          "name": "",
          "type": "string"
        },
        {
          "internalType": "string",
          "name": "",
          "type": "string"
        },
        {
          "internalType": "address",
          "name": "",
          "type": "address"
        },
        {
          "internalType": "uint256",
          "name": "",
          "type": "uint256"
        }
      ],
      "payable": false,
      "stateMutability": "view",
      "type": "function"
    },
    {
      "constant": true,
      "inputs": [],
      "name": "getBlogCount",
      "outputs": [
        {
          "internalType": "uint256",
          "name": "",
          "type": "uint256"
        }
      ],
      "payable": false,
      "stateMutability": "view",
      "type": "function"
    },
    {
      "constant": true,
      "inputs": [],
      "name": "getAllBlogs",
      "outputs": [
        {
          "components": [
            {
              "internalType": "string",
              "name": "title",
              "type": "string"
            },
            {
              "internalType": "string",
              "name": "content",
              "type": "string"
            },
            {
              "internalType": "address",
              "name": "publisher",
              "type": "address"
            },
            {
              "internalType": "uint256",
              "name": "blogHash",
              "type": "uint256"
            }
          ],
          "internalType": "struct BlogFactory.Blog[]",
          "name": "",
          "type": "tuple[]"
        }
      ],
      "payable": false,
      "stateMutability": "view",
      "type": "function"
    }
  ],
  "bytecode": "0x6080604052600060025534801561001557600080fd5b50611150806100256000396000f3fe608060405234801561001057600080fd5b506004361061007d5760003560e01c8063c4c747001161005b578063c4c7470014610101578063c8b71c951461011f578063d4868baa1461013d578063d7e85046146101705761007d565b806380f052d8146100825780638e4390cc146100b5578063c1e41586146100e5575b600080fd5b61009c60048036036100979190810190610b7a565b6101a0565b6040516100ac9493929190610e78565b60405180910390f35b6100cf60048036036100ca9190810190610b7a565b61032d565b6040516100dc9190610de8565b60405180910390f35b6100ff60048036036100fa9190810190610b0e565b610360565b005b61010961037c565b6040516101169190610e03565b60405180910390f35b61012761057f565b6040516101349190610ecb565b60405180910390f35b61015760048036036101529190810190610b7a565b610588565b6040516101679493929190610e25565b60405180910390f35b61018a60048036036101859190810190610ae5565b61076f565b6040516101979190610ecb565b60405180910390f35b600181815481106101ad57fe5b9060005260206000209060040201600091509050806000018054600181600116156101000203166002900480601f0160208091040260200160405190810160405280929190818152602001828054600181600116156101000203166002900480156102595780601f1061022e57610100808354040283529160200191610259565b820191906000526020600020905b81548152906001019060200180831161023c57829003601f168201915b505050505090806001018054600181600116156101000203166002900480601f0160208091040260200160405190810160405280929190818152602001828054600181600116156101000203166002900480156102f75780601f106102cc576101008083540402835291602001916102f7565b820191906000526020600020905b8154815290600101906020018083116102da57829003601f168201915b5050505050908060020160009054906101000a900473ffffffffffffffffffffffffffffffffffffffff16908060030154905084565b60036020528060005260406000206000915054906101000a900473ffffffffffffffffffffffffffffffffffffffff1681565b600061036a610787565b90506103778383836107d0565b505050565b60606001805480602002602001604051908101604052809291908181526020016000905b828210156105765783829060005260206000209060040201604051806080016040529081600082018054600181600116156101000203166002900480601f01602080910402602001604051908101604052809291908181526020018280546001816001161561010002031660029004801561045c5780601f106104315761010080835404028352916020019161045c565b820191906000526020600020905b81548152906001019060200180831161043f57829003601f168201915b50505050508152602001600182018054600181600116156101000203166002900480601f0160208091040260200160405190810160405280929190818152602001828054600181600116156101000203166002900480156104fe5780601f106104d3576101008083540402835291602001916104fe565b820191906000526020600020905b8154815290600101906020018083116104e157829003601f168201915b505050505081526020016002820160009054906101000a900473ffffffffffffffffffffffffffffffffffffffff1673ffffffffffffffffffffffffffffffffffffffff1673ffffffffffffffffffffffffffffffffffffffff168152602001600382015481525050815260200190600101906103a0565b50505050905090565b60008054905090565b6060806000806001858154811061059b57fe5b9060005260206000209060040201600001600186815481106105b957fe5b9060005260206000209060040201600101600187815481106105d757fe5b906000526020600020906004020160020160009054906101000a900473ffffffffffffffffffffffffffffffffffffffff166001888154811061061657fe5b906000526020600020906004020160030154838054600181600116156101000203166002900480601f0160208091040260200160405190810160405280929190818152602001828054600181600116156101000203166002900480156106bd5780601f10610692576101008083540402835291602001916106bd565b820191906000526020600020905b8154815290600101906020018083116106a057829003601f168201915b50505050509350828054600181600116156101000203166002900480601f0160208091040260200160405190810160405280929190818152602001828054600181600116156101000203166002900480156107595780601f1061072e57610100808354040283529160200191610759565b820191906000526020600020905b81548152906001019060200180831161073c57829003601f168201915b5050505050925093509350935093509193509193565b60046020528060005260406000206000915090505481565b600060026000815480929190600101919050555042336002546040516020016107b293929190610dab565b6040516020818303038152906040528051906020012060001c905090565b600160405180608001604052808581526020018481526020013373ffffffffffffffffffffffffffffffffffffffff168152602001838152509080600181540180825580915050906001820390600052602060002090600402016000909192909190915060008201518160000190805190602001906108509291906109c2565b50602082015181600101908051906020019061086d9291906109c2565b5060408201518160020160006101000a81548173ffffffffffffffffffffffffffffffffffffffff021916908373ffffffffffffffffffffffffffffffffffffffff16021790555060608201518160030155505050600060018080549050039050336003600083815260200190815260200160002060006101000a81548173ffffffffffffffffffffffffffffffffffffffff021916908373ffffffffffffffffffffffffffffffffffffffff160217905550600460003373ffffffffffffffffffffffffffffffffffffffff1673ffffffffffffffffffffffffffffffffffffffff16815260200190815260200160002060008154809291906001019190505550600160008082825401925050819055507f236cc72ba89033532459a768f0e45ade370ea0b1fdc05782a679700686b366cf818585856040516109b49493929190610ee6565b60405180910390a150505050565b828054600181600116156101000203166002900490600052602060002090601f016020900481019282601f10610a0357805160ff1916838001178555610a31565b82800160010185558215610a31579182015b82811115610a30578251825591602001919060010190610a15565b5b509050610a3e9190610a42565b5090565b610a6491905b80821115610a60576000816000905550600101610a48565b5090565b90565b600081359050610a76816110df565b92915050565b600082601f830112610a8d57600080fd5b8135610aa0610a9b82610f66565b610f39565b91508082526020830160208301858383011115610abc57600080fd5b610ac7838284611051565b50505092915050565b600081359050610adf816110f6565b92915050565b600060208284031215610af757600080fd5b6000610b0584828501610a67565b91505092915050565b60008060408385031215610b2157600080fd5b600083013567ffffffffffffffff811115610b3b57600080fd5b610b4785828601610a7c565b925050602083013567ffffffffffffffff811115610b6457600080fd5b610b7085828601610a7c565b9150509250929050565b600060208284031215610b8c57600080fd5b6000610b9a84828501610ad0565b91505092915050565b6000610baf8383610d0c565b905092915050565b610bc8610bc382611015565b611093565b82525050565b610bd781611003565b82525050565b610be681611003565b82525050565b6000610bf782610fa2565b610c018185610fd0565b935083602082028501610c1385610f92565b8060005b85811015610c4f5784840389528151610c308582610ba3565b9450610c3b83610fc3565b925060208a01995050600181019050610c17565b50829750879550505050505092915050565b6000610c6c82610fb8565b610c768185610ff2565b9350610c86818560208601611060565b610c8f816110c1565b840191505092915050565b6000610ca582610fad565b610caf8185610fe1565b9350610cbf818560208601611060565b610cc8816110c1565b840191505092915050565b6000610cde82610fad565b610ce88185610ff2565b9350610cf8818560208601611060565b610d01816110c1565b840191505092915050565b60006080830160008301518482036000860152610d298282610c9a565b91505060208301518482036020860152610d438282610c9a565b9150506040830151610d586040860182610bce565b506060830151610d6b6060860182610d76565b508091505092915050565b610d7f81611047565b82525050565b610d8e81611047565b82525050565b610da5610da082611047565b6110b7565b82525050565b6000610db78286610d94565b602082019150610dc78285610bb7565b601482019150610dd78284610d94565b602082019150819050949350505050565b6000602082019050610dfd6000830184610bdd565b92915050565b60006020820190508181036000830152610e1d8184610bec565b905092915050565b60006080820190508181036000830152610e3f8187610c61565b90508181036020830152610e538186610c61565b9050610e626040830185610bdd565b610e6f6060830184610d85565b95945050505050565b60006080820190508181036000830152610e928187610cd3565b90508181036020830152610ea68186610cd3565b9050610eb56040830185610bdd565b610ec26060830184610d85565b95945050505050565b6000602082019050610ee06000830184610d85565b92915050565b6000608082019050610efb6000830187610d85565b8181036020830152610f0d8186610c61565b90508181036040830152610f218185610c61565b9050610f306060830184610d85565b95945050505050565b6000604051905081810181811067ffffffffffffffff82111715610f5c57600080fd5b8060405250919050565b600067ffffffffffffffff821115610f7d57600080fd5b601f19601f8301169050602081019050919050565b6000819050602082019050919050565b600081519050919050565b600081519050919050565b600081519050919050565b6000602082019050919050565b600082825260208201905092915050565b600082825260208201905092915050565b600082825260208201905092915050565b600061100e82611027565b9050919050565b600061102082611027565b9050919050565b600073ffffffffffffffffffffffffffffffffffffffff82169050919050565b6000819050919050565b82818337600083830152505050565b60005b8381101561107e578082015181840152602081019050611063565b8381111561108d576000848401525b50505050565b600061109e826110a5565b9050919050565b60006110b0826110d2565b9050919050565b6000819050919050565b6000601f19601f8301169050919050565b60008160601b9050919050565b6110e881611003565b81146110f357600080fd5b50565b6110ff81611047565b811461110a57600080fd5b5056fea365627a7a723158204cd332652771541850f806ef89301948fda838be2c7d17ede6c2cc620a0fdcea6c6578706572696d656e74616cf564736f6c63430005100040",
  "source": "// SPDX-License-Identifier: UNLICENSED\r\n\r\npragma solidity >=0.4.22 <0.9.0;\r\npragma experimental ABIEncoderV2;\r\n\r\ncontract BlogFactory {\r\n    uint256 blogCount;\r\n\r\n    event NewBlog(\r\n        uint256 blogId,\r\n        string title,\r\n        string content,\r\n        uint256 blogHash\r\n    );\r\n\r\n    struct Blog {\r\n        string title;\r\n        string content;\r\n        address publisher;\r\n        uint256 blogHash;\r\n        //We have to add timestap later....\r\n    }\r\n\r\n    Blog[] public blogs;\r\n\r\n    uint256 randNonce = 0; // for Generating BlogHash\r\n    // declare mappings here\r\n    mapping(uint256 => address) public blogToOwner;\r\n    mapping(address => uint256) public userBlogCount;\r\n\r\n    function _publishBlog(\r\n        string memory _title,\r\n        string memory _content,\r\n        uint256 _blogHash\r\n    ) private {\r\n        blogs.push(Blog(_title, _content, msg.sender, _blogHash));\r\n        uint256 id = blogs.length - 1;\r\n        blogToOwner[id] = msg.sender;\r\n        userBlogCount[msg.sender]++;\r\n        blogCount += 1;\r\n        emit NewBlog(id, _title, _content, _blogHash);\r\n    }\r\n\r\n    function _generateBlogHash() internal returns (uint256) {\r\n        randNonce++;\r\n        return\r\n            uint256(\r\n                keccak256(\r\n                    abi.encodePacked(block.timestamp, msg.sender, randNonce)\r\n                )\r\n            );\r\n    }\r\n\r\n    function createBlog(string memory _title, string memory _content) public {\r\n        //uint randDna = _generateBlogHash(_name);\r\n        uint256 blogHash = _generateBlogHash();\r\n        _publishBlog(_title, _content, blogHash);\r\n    }\r\n\r\n    function getBlog(uint256 blogIndex)\r\n        public\r\n        view\r\n        returns (\r\n            string memory,\r\n            string memory,\r\n            address,\r\n            uint256\r\n        )\r\n    {\r\n        return (\r\n            blogs[blogIndex].title,\r\n            blogs[blogIndex].content,\r\n            blogs[blogIndex].publisher,\r\n            blogs[blogIndex].blogHash\r\n        );\r\n    }\r\n\r\n    function getBlogCount() public view returns (uint256) {\r\n        return blogCount;\r\n    }\r\n\r\n    function getAllBlogs() public view returns (Blog[] memory) {\r\n        return blogs;\r\n    }\r\n}\r\n",
  "sourcePath": "D:\\project\\blockchain\\blog\\src\\contracts\\blogFactory.sol",
  "compiler": {
    "name": "solc",
    "version": "0.5.16+commit.9c3226ce.Emscripten.clang"
  },
  "schemaVersion": "3.4.4",
  "updatedAt": "2022-02-07T10:39:18.214Z",
  "networkType": "ethereum",
  "devdoc": {
    "methods": {}
  },
  "userdoc": {
    "methods": {}
  }
}