{
  "contractName": "BlogFactory",
  "abi": [
    {
      "anonymous": false,
      "inputs": [
        {
          "indexed": false,
          "internalType": "uint256",
          "name": "blogId",
          "type": "uint256"
        },
        {
          "indexed": false,
          "internalType": "string",
          "name": "title",
          "type": "string"
        },
        {
          "indexed": false,
          "internalType": "string",
          "name": "content",
          "type": "string"
        },
        {
          "indexed": false,
          "internalType": "uint256",
          "name": "blogHash",
          "type": "uint256"
        }
      ],
      "name": "NewBlog",
      "type": "event"
    },
    {
      "constant": true,
      "inputs": [
        {
          "internalType": "uint256",
          "name": "",
          "type": "uint256"
        }
      ],
      "name": "blogToOwner",
      "outputs": [
        {
          "internalType": "address",
          "name": "",
          "type": "address"
        }
      ],
      "payable": false,
      "stateMutability": "view",
      "type": "function"
    },
    {
      "constant": true,
      "inputs": [
        {
          "internalType": "uint256",
          "name": "",
          "type": "uint256"
        }
      ],
      "name": "blogs",
      "outputs": [
        {
          "internalType": "string",
          "name": "title",
          "type": "string"
        },
        {
          "internalType": "string",
          "name": "content",
          "type": "string"
        },
        {
          "internalType": "address",
          "name": "publisher",
          "type": "address"
        },
        {
          "internalType": "uint256",
          "name": "blogHash",
          "type": "uint256"
        }
      ],
      "payable": false,
      "stateMutability": "view",
      "type": "function"
    },
    {
      "constant": true,
      "inputs": [
        {
          "internalType": "address",
          "name": "",
          "type": "address"
        }
      ],
      "name": "userBlogCount",
      "outputs": [
        {
          "internalType": "uint256",
          "name": "",
          "type": "uint256"
        }
      ],
      "payable": false,
      "stateMutability": "view",
      "type": "function"
    },
    {
      "constant": false,
      "inputs": [
        {
          "internalType": "string",
          "name": "_title",
          "type": "string"
        },
        {
          "internalType": "string",
          "name": "_content",
          "type": "string"
        }
      ],
      "name": "createBlog",
      "outputs": [],
      "payable": false,
      "stateMutability": "nonpayable",
      "type": "function"
    },
    {
      "constant": true,
      "inputs": [
        {
          "internalType": "uint256",
          "name": "blogIndex",
          "type": "uint256"
        }
      ],
      "name": "getBlog",
      "outputs": [
        {
          "internalType": "string",
          "name": "",
          "type": "string"
        },
        {
          "internalType": "string",
          "name": "",
          "type": "string"
        },
        {
          "internalType": "address",
          "name": "",
          "type": "address"
        },
        {
          "internalType": "uint256",
          "name": "",
          "type": "uint256"
        }
      ],
      "payable": false,
      "stateMutability": "view",
      "type": "function"
    }
  ],
  "bytecode": "0x6080604052600060015534801561001557600080fd5b50610d06806100256000396000f3fe608060405234801561001057600080fd5b50600436106100575760003560e01c806380f052d81461005c5780638e4390cc146101a9578063c1e4158614610217578063d4868baa14610369578063d7e85046146104b6575b600080fd5b6100886004803603602081101561007257600080fd5b810190808035906020019092919050505061050e565b6040518080602001806020018573ffffffffffffffffffffffffffffffffffffffff1673ffffffffffffffffffffffffffffffffffffffff168152602001848152602001838103835287818151815260200191508051906020019080838360005b838110156101045780820151818401526020810190506100e9565b50505050905090810190601f1680156101315780820380516001836020036101000a031916815260200191505b50838103825286818151815260200191508051906020019080838360005b8381101561016a57808201518184015260208101905061014f565b50505050905090810190601f1680156101975780820380516001836020036101000a031916815260200191505b50965050505050505060405180910390f35b6101d5600480360360208110156101bf57600080fd5b810190808035906020019092919050505061069b565b604051808273ffffffffffffffffffffffffffffffffffffffff1673ffffffffffffffffffffffffffffffffffffffff16815260200191505060405180910390f35b6103676004803603604081101561022d57600080fd5b810190808035906020019064010000000081111561024a57600080fd5b82018360208201111561025c57600080fd5b8035906020019184600183028401116401000000008311171561027e57600080fd5b91908080601f016020809104026020016040519081016040528093929190818152602001838380828437600081840152601f19601f820116905080830192505050505050509192919290803590602001906401000000008111156102e157600080fd5b8201836020820111156102f357600080fd5b8035906020019184600183028401116401000000008311171561031557600080fd5b91908080601f016020809104026020016040519081016040528093929190818152602001838380828437600081840152601f19601f8201169050808301925050505050505091929192905050506106ce565b005b6103956004803603602081101561037f57600080fd5b81019080803590602001909291905050506106ea565b6040518080602001806020018573ffffffffffffffffffffffffffffffffffffffff1673ffffffffffffffffffffffffffffffffffffffff168152602001848152602001838103835287818151815260200191508051906020019080838360005b838110156104115780820151818401526020810190506103f6565b50505050905090810190601f16801561043e5780820380516001836020036101000a031916815260200191505b50838103825286818151815260200191508051906020019080838360005b8381101561047757808201518184015260208101905061045c565b50505050905090810190601f1680156104a45780820380516001836020036101000a031916815260200191505b50965050505050505060405180910390f35b6104f8600480360360208110156104cc57600080fd5b81019080803573ffffffffffffffffffffffffffffffffffffffff1690602001909291905050506108d1565b6040518082815260200191505060405180910390f35b6000818154811061051b57fe5b9060005260206000209060040201600091509050806000018054600181600116156101000203166002900480601f0160208091040260200160405190810160405280929190818152602001828054600181600116156101000203166002900480156105c75780601f1061059c576101008083540402835291602001916105c7565b820191906000526020600020905b8154815290600101906020018083116105aa57829003601f168201915b505050505090806001018054600181600116156101000203166002900480601f0160208091040260200160405190810160405280929190818152602001828054600181600116156101000203166002900480156106655780601f1061063a57610100808354040283529160200191610665565b820191906000526020600020905b81548152906001019060200180831161064857829003601f168201915b5050505050908060020160009054906101000a900473ffffffffffffffffffffffffffffffffffffffff16908060030154905084565b60026020528060005260406000206000915054906101000a900473ffffffffffffffffffffffffffffffffffffffff1681565b60006106d86108e9565b90506106e583838361096d565b505050565b606080600080600085815481106106fd57fe5b90600052602060002090600402016000016000868154811061071b57fe5b90600052602060002090600402016001016000878154811061073957fe5b906000526020600020906004020160020160009054906101000a900473ffffffffffffffffffffffffffffffffffffffff166000888154811061077857fe5b906000526020600020906004020160030154838054600181600116156101000203166002900480601f01602080910402602001604051908101604052809291908181526020018280546001816001161561010002031660029004801561081f5780601f106107f45761010080835404028352916020019161081f565b820191906000526020600020905b81548152906001019060200180831161080257829003601f168201915b50505050509350828054600181600116156101000203166002900480601f0160208091040260200160405190810160405280929190818152602001828054600181600116156101000203166002900480156108bb5780601f10610890576101008083540402835291602001916108bb565b820191906000526020600020905b81548152906001019060200180831161089e57829003601f168201915b5050505050925093509350935093509193509193565b60036020528060005260406000206000915090505481565b60006001600081548092919060010191905055504233600154604051602001808481526020018373ffffffffffffffffffffffffffffffffffffffff1673ffffffffffffffffffffffffffffffffffffffff1660601b815260140182815260200193505050506040516020818303038152906040528051906020012060001c905090565b600060405180608001604052808581526020018481526020013373ffffffffffffffffffffffffffffffffffffffff168152602001838152509080600181540180825580915050906001820390600052602060002090600402016000909192909190915060008201518160000190805190602001906109ed929190610c2c565b506020820151816001019080519060200190610a0a929190610c2c565b5060408201518160020160006101000a81548173ffffffffffffffffffffffffffffffffffffffff021916908373ffffffffffffffffffffffffffffffffffffffff1602179055506060820151816003015550505060006001600080549050039050336002600083815260200190815260200160002060006101000a81548173ffffffffffffffffffffffffffffffffffffffff021916908373ffffffffffffffffffffffffffffffffffffffff160217905550600360003373ffffffffffffffffffffffffffffffffffffffff1673ffffffffffffffffffffffffffffffffffffffff168152602001908152602001600020600081548092919060010191905055507f236cc72ba89033532459a768f0e45ade370ea0b1fdc05782a679700686b366cf81858585604051808581526020018060200180602001848152602001838103835286818151815260200191508051906020019080838360005b83811015610b82578082015181840152602081019050610b67565b50505050905090810190601f168015610baf5780820380516001836020036101000a031916815260200191505b50838103825285818151815260200191508051906020019080838360005b83811015610be8578082015181840152602081019050610bcd565b50505050905090810190601f168015610c155780820380516001836020036101000a031916815260200191505b50965050505050505060405180910390a150505050565b828054600181600116156101000203166002900490600052602060002090601f016020900481019282601f10610c6d57805160ff1916838001178555610c9b565b82800160010185558215610c9b579182015b82811115610c9a578251825591602001919060010190610c7f565b5b509050610ca89190610cac565b5090565b610cce91905b80821115610cca576000816000905550600101610cb2565b5090565b9056fea265627a7a72315820ee7af40d65ca2c994b9ee954502d5a89acceddb2eb5d3c00e14c7ac9a386017d64736f6c63430005100032",
  "source": "pragma solidity >=0.4.22 <0.9.0;\r\n\r\ncontract BlogFactory{\r\n\r\n   event NewBlog(uint blogId, string title, string content, uint blogHash);\r\n\r\n    struct Blog{\r\n        string title;\r\n        string content;\r\n        address publisher;\r\n        uint blogHash;\r\n        //We have to add timestap later....\r\n    }\r\n\r\n    Blog[] public blogs;\r\n    \r\n    uint randNonce = 0; // for Generating BlogHash\r\n    // declare mappings here\r\n    mapping (uint => address) public blogToOwner;\r\n    mapping (address => uint) public userBlogCount;\r\n\r\n\r\n\r\n    function _publishBlog(string memory _title, string memory _content, uint _blogHash) private {\r\n        blogs.push(Blog(_title,_content, msg.sender, _blogHash));\r\n        uint id = blogs.length -1;\r\n        blogToOwner[id] = msg.sender;\r\n        userBlogCount[msg.sender]++;\r\n        emit NewBlog(id, _title,_content, _blogHash);\r\n    } \r\n\r\n    function _generateBlogHash() internal returns (uint) {\r\n        randNonce++;\r\n        return uint(keccak256(abi.encodePacked(block.timestamp, msg.sender, randNonce))) ;\r\n    }\r\n\r\n    function createBlog(string memory _title, string memory _content) public {\r\n        //uint randDna = _generateBlogHash(_name);\r\n        uint blogHash =  _generateBlogHash();\r\n        _publishBlog(_title, _content, blogHash);\r\n    }\r\n\r\n\r\n    function getBlog(uint blogIndex) public view returns(string memory , string memory, address, uint) {\r\n        return ( blogs[blogIndex].title, \r\n        blogs[blogIndex].content, \r\n        blogs[blogIndex].publisher,  \r\n        blogs[blogIndex].blogHash);\r\n    }\r\n}\r\n",
  "sourcePath": "D:\\Blockchain\\Btp\\blog-main\\src\\contracts\\blogFactory.sol",
  "compiler": {
    "name": "solc",
    "version": "0.5.16+commit.9c3226ce.Emscripten.clang"
  },
  "schemaVersion": "3.4.4",
  "updatedAt": "2022-02-06T13:10:51.603Z",
  "devdoc": {
    "methods": {}
  },
  "userdoc": {
    "methods": {}
  }
}