{
  "contractName": "BlogFactory",
  "abi": [
    {
      "anonymous": false,
      "inputs": [
        {
          "indexed": false,
          "internalType": "uint256",
          "name": "blogId",
          "type": "uint256"
        },
        {
          "indexed": false,
          "internalType": "string",
          "name": "title",
          "type": "string"
        },
        {
          "indexed": false,
          "internalType": "string",
          "name": "content",
          "type": "string"
        },
        {
          "indexed": false,
          "internalType": "uint256",
          "name": "blogHash",
          "type": "uint256"
        }
      ],
      "name": "NewBlog",
      "type": "event"
    },
    {
      "constant": true,
      "inputs": [
        {
          "internalType": "uint256",
          "name": "",
          "type": "uint256"
        }
      ],
      "name": "blogHashToBlog",
      "outputs": [
        {
          "internalType": "string",
          "name": "title",
          "type": "string"
        },
        {
          "internalType": "string",
          "name": "content",
          "type": "string"
        },
        {
          "internalType": "address",
          "name": "publisher",
          "type": "address"
        },
        {
          "internalType": "uint256",
          "name": "blogHash",
          "type": "uint256"
        }
      ],
      "payable": false,
      "stateMutability": "view",
      "type": "function"
    },
    {
      "constant": true,
      "inputs": [
        {
          "internalType": "uint256",
          "name": "",
          "type": "uint256"
        }
      ],
      "name": "blogToOwner",
      "outputs": [
        {
          "internalType": "address",
          "name": "",
          "type": "address"
        }
      ],
      "payable": false,
      "stateMutability": "view",
      "type": "function"
    },
    {
      "constant": true,
      "inputs": [
        {
          "internalType": "uint256",
          "name": "",
          "type": "uint256"
        }
      ],
      "name": "blogs",
      "outputs": [
        {
          "internalType": "string",
          "name": "title",
          "type": "string"
        },
        {
          "internalType": "string",
          "name": "content",
          "type": "string"
        },
        {
          "internalType": "address",
          "name": "publisher",
          "type": "address"
        },
        {
          "internalType": "uint256",
          "name": "blogHash",
          "type": "uint256"
        }
      ],
      "payable": false,
      "stateMutability": "view",
      "type": "function"
    },
    {
      "constant": true,
      "inputs": [
        {
          "internalType": "address",
          "name": "",
          "type": "address"
        }
      ],
      "name": "userBlogCount",
      "outputs": [
        {
          "internalType": "uint256",
          "name": "",
          "type": "uint256"
        }
      ],
      "payable": false,
      "stateMutability": "view",
      "type": "function"
    },
    {
      "constant": false,
      "inputs": [
        {
          "internalType": "string",
          "name": "_title",
          "type": "string"
        },
        {
          "internalType": "string",
          "name": "_content",
          "type": "string"
        }
      ],
      "name": "createBlog",
      "outputs": [],
      "payable": false,
      "stateMutability": "nonpayable",
      "type": "function"
    },
    {
      "constant": true,
      "inputs": [
        {
          "internalType": "uint256",
          "name": "blogIndex",
          "type": "uint256"
        }
      ],
      "name": "getBlog",
      "outputs": [
        {
          "internalType": "string",
          "name": "",
          "type": "string"
        },
        {
          "internalType": "string",
          "name": "",
          "type": "string"
        },
        {
          "internalType": "address",
          "name": "",
          "type": "address"
        },
        {
          "internalType": "uint256",
          "name": "",
          "type": "uint256"
        }
      ],
      "payable": false,
      "stateMutability": "view",
      "type": "function"
    },
    {
      "constant": true,
      "inputs": [],
      "name": "getBlogCount",
      "outputs": [
        {
          "internalType": "uint256",
          "name": "",
          "type": "uint256"
        }
      ],
      "payable": false,
      "stateMutability": "view",
      "type": "function"
    },
    {
      "constant": true,
      "inputs": [],
      "name": "getAllBlogs",
      "outputs": [
        {
          "components": [
            {
              "internalType": "string",
              "name": "title",
              "type": "string"
            },
            {
              "internalType": "string",
              "name": "content",
              "type": "string"
            },
            {
              "internalType": "address",
              "name": "publisher",
              "type": "address"
            },
            {
              "internalType": "uint256",
              "name": "blogHash",
              "type": "uint256"
            }
          ],
          "internalType": "struct BlogFactory.Blog[]",
          "name": "",
          "type": "tuple[]"
        }
      ],
      "payable": false,
      "stateMutability": "view",
      "type": "function"
    },
    {
      "constant": true,
      "inputs": [
        {
          "internalType": "string",
          "name": "numString",
          "type": "string"
        }
      ],
      "name": "st2num",
      "outputs": [
        {
          "internalType": "uint256",
          "name": "",
          "type": "uint256"
        }
      ],
      "payable": false,
      "stateMutability": "pure",
      "type": "function"
    },
    {
      "constant": true,
      "inputs": [
        {
          "internalType": "string",
          "name": "_blogHash",
          "type": "string"
        }
      ],
      "name": "getBlogFromBlogHash",
      "outputs": [
        {
          "internalType": "string",
          "name": "",
          "type": "string"
        },
        {
          "internalType": "string",
          "name": "",
          "type": "string"
        },
        {
          "internalType": "address",
          "name": "",
          "type": "address"
        }
      ],
      "payable": false,
      "stateMutability": "view",
      "type": "function"
    }
  ],
  "bytecode": "0x6080604052600060025534801561001557600080fd5b506117b9806100256000396000f3fe608060405234801561001057600080fd5b506004361061009e5760003560e01c8063c1e4158611610066578063c1e415861461019b578063c4c74700146101b7578063c8b71c95146101d5578063d4868baa146101f3578063d7e85046146102265761009e565b80635a673b8f146100a35780637636da28146100d657806379cd90551461010857806380f052d8146101385780638e4390cc1461016b575b600080fd5b6100bd60048036036100b8919081019061119e565b610256565b6040516100cd94939291906114e1565b60405180910390f35b6100f060048036036100eb91908101906110f1565b6103d6565b6040516100ff93929190611449565b60405180910390f35b610122600480360361011d91908101906110f1565b610590565b60405161012f9190611534565b60405180910390f35b610152600480360361014d919081019061119e565b61060a565b60405161016294939291906114e1565b60405180910390f35b6101856004803603610180919081019061119e565b610797565b604051610192919061140c565b60405180910390f35b6101b560048036036101b09190810190611132565b6107ca565b005b6101bf6107e6565b6040516101cc9190611427565b60405180910390f35b6101dd6109e9565b6040516101ea9190611534565b60405180910390f35b61020d6004803603610208919081019061119e565b6109f2565b60405161021d949392919061148e565b60405180910390f35b610240600480360361023b91908101906110c8565b610bd9565b60405161024d9190611534565b60405180910390f35b6005602052806000526040600020600091509050806000018054600181600116156101000203166002900480601f0160208091040260200160405190810160405280929190818152602001828054600181600116156101000203166002900480156103025780601f106102d757610100808354040283529160200191610302565b820191906000526020600020905b8154815290600101906020018083116102e557829003601f168201915b505050505090806001018054600181600116156101000203166002900480601f0160208091040260200160405190810160405280929190818152602001828054600181600116156101000203166002900480156103a05780601f10610375576101008083540402835291602001916103a0565b820191906000526020600020905b81548152906001019060200180831161038357829003601f168201915b5050505050908060020160009054906101000a900473ffffffffffffffffffffffffffffffffffffffff16908060030154905084565b6060806000806103e585610590565b905060056000828152602001908152602001600020600001600560008381526020019081526020016000206001016005600084815260200190815260200160002060020160009054906101000a900473ffffffffffffffffffffffffffffffffffffffff16828054600181600116156101000203166002900480601f0160208091040260200160405190810160405280929190818152602001828054600181600116156101000203166002900480156104df5780601f106104b4576101008083540402835291602001916104df565b820191906000526020600020905b8154815290600101906020018083116104c257829003601f168201915b50505050509250818054600181600116156101000203166002900480601f01602080910402602001604051908101604052809291908181526020018280546001816001161561010002031660029004801561057b5780601f106105505761010080835404028352916020019161057b565b820191906000526020600020905b81548152906001019060200180831161055e57829003601f168201915b50505050509150935093509350509193909250565b60008060009050606083905060008090505b81518110156105ff57600081835103905060008383815181106105c157fe5b602001015160f81c60f81b905060008160f81c9050600060308260ff1603905060018403600a0a8102870196505050505080806001019150506105a2565b508192505050919050565b6001818154811061061757fe5b9060005260206000209060040201600091509050806000018054600181600116156101000203166002900480601f0160208091040260200160405190810160405280929190818152602001828054600181600116156101000203166002900480156106c35780601f10610698576101008083540402835291602001916106c3565b820191906000526020600020905b8154815290600101906020018083116106a657829003601f168201915b505050505090806001018054600181600116156101000203166002900480601f0160208091040260200160405190810160405280929190818152602001828054600181600116156101000203166002900480156107615780601f1061073657610100808354040283529160200191610761565b820191906000526020600020905b81548152906001019060200180831161074457829003601f168201915b5050505050908060020160009054906101000a900473ffffffffffffffffffffffffffffffffffffffff16908060030154905084565b60036020528060005260406000206000915054906101000a900473ffffffffffffffffffffffffffffffffffffffff1681565b60006107d4610bf1565b90506107e1838383610c3a565b505050565b60606001805480602002602001604051908101604052809291908181526020016000905b828210156109e05783829060005260206000209060040201604051806080016040529081600082018054600181600116156101000203166002900480601f0160208091040260200160405190810160405280929190818152602001828054600181600116156101000203166002900480156108c65780601f1061089b576101008083540402835291602001916108c6565b820191906000526020600020905b8154815290600101906020018083116108a957829003601f168201915b50505050508152602001600182018054600181600116156101000203166002900480601f0160208091040260200160405190810160405280929190818152602001828054600181600116156101000203166002900480156109685780601f1061093d57610100808354040283529160200191610968565b820191906000526020600020905b81548152906001019060200180831161094b57829003601f168201915b505050505081526020016002820160009054906101000a900473ffffffffffffffffffffffffffffffffffffffff1673ffffffffffffffffffffffffffffffffffffffff1673ffffffffffffffffffffffffffffffffffffffff1681526020016003820154815250508152602001906001019061080a565b50505050905090565b60008054905090565b60608060008060018581548110610a0557fe5b906000526020600020906004020160000160018681548110610a2357fe5b906000526020600020906004020160010160018781548110610a4157fe5b906000526020600020906004020160020160009054906101000a900473ffffffffffffffffffffffffffffffffffffffff1660018881548110610a8057fe5b906000526020600020906004020160030154838054600181600116156101000203166002900480601f016020809104026020016040519081016040528092919081815260200182805460018160011615610100020316600290048015610b275780601f10610afc57610100808354040283529160200191610b27565b820191906000526020600020905b815481529060010190602001808311610b0a57829003601f168201915b50505050509350828054600181600116156101000203166002900480601f016020809104026020016040519081016040528092919081815260200182805460018160011615610100020316600290048015610bc35780601f10610b9857610100808354040283529160200191610bc3565b820191906000526020600020905b815481529060010190602001808311610ba657829003601f168201915b5050505050925093509350935093509193509193565b60046020528060005260406000206000915090505481565b60006002600081548092919060010191905055504233600254604051602001610c1c939291906113cf565b6040516020818303038152906040528051906020012060001c905090565b600160405180608001604052808581526020018481526020013373ffffffffffffffffffffffffffffffffffffffff16815260200183815250908060018154018082558091505090600182039060005260206000209060040201600090919290919091506000820151816000019080519060200190610cba929190610f1e565b506020820151816001019080519060200190610cd7929190610f1e565b5060408201518160020160006101000a81548173ffffffffffffffffffffffffffffffffffffffff021916908373ffffffffffffffffffffffffffffffffffffffff1602179055506060820151816003015550505060006001808054905003905060018181548110610d4557fe5b90600052602060002090600402016005600084815260200190815260200160002060008201816000019080546001816001161561010002031660029004610d8d929190610f9e565b5060018201816001019080546001816001161561010002031660029004610db5929190610f9e565b506002820160009054906101000a900473ffffffffffffffffffffffffffffffffffffffff168160020160006101000a81548173ffffffffffffffffffffffffffffffffffffffff021916908373ffffffffffffffffffffffffffffffffffffffff16021790555060038201548160030155905050336003600083815260200190815260200160002060006101000a81548173ffffffffffffffffffffffffffffffffffffffff021916908373ffffffffffffffffffffffffffffffffffffffff160217905550600460003373ffffffffffffffffffffffffffffffffffffffff1673ffffffffffffffffffffffffffffffffffffffff16815260200190815260200160002060008154809291906001019190505550600160008082825401925050819055507f236cc72ba89033532459a768f0e45ade370ea0b1fdc05782a679700686b366cf81858585604051610f10949392919061154f565b60405180910390a150505050565b828054600181600116156101000203166002900490600052602060002090601f016020900481019282601f10610f5f57805160ff1916838001178555610f8d565b82800160010185558215610f8d579182015b82811115610f8c578251825591602001919060010190610f71565b5b509050610f9a9190611025565b5090565b828054600181600116156101000203166002900490600052602060002090601f016020900481019282601f10610fd75780548555611014565b8280016001018555821561101457600052602060002091601f016020900482015b82811115611013578254825591600101919060010190610ff8565b5b5090506110219190611025565b5090565b61104791905b8082111561104357600081600090555060010161102b565b5090565b90565b60008135905061105981611748565b92915050565b600082601f83011261107057600080fd5b813561108361107e826115cf565b6115a2565b9150808252602083016020830185838301111561109f57600080fd5b6110aa8382846116ba565b50505092915050565b6000813590506110c28161175f565b92915050565b6000602082840312156110da57600080fd5b60006110e88482850161104a565b91505092915050565b60006020828403121561110357600080fd5b600082013567ffffffffffffffff81111561111d57600080fd5b6111298482850161105f565b91505092915050565b6000806040838503121561114557600080fd5b600083013567ffffffffffffffff81111561115f57600080fd5b61116b8582860161105f565b925050602083013567ffffffffffffffff81111561118857600080fd5b6111948582860161105f565b9150509250929050565b6000602082840312156111b057600080fd5b60006111be848285016110b3565b91505092915050565b60006111d38383611330565b905092915050565b6111ec6111e78261167e565b6116fc565b82525050565b6111fb8161166c565b82525050565b61120a8161166c565b82525050565b600061121b8261160b565b6112258185611639565b935083602082028501611237856115fb565b8060005b85811015611273578484038952815161125485826111c7565b945061125f8361162c565b925060208a0199505060018101905061123b565b50829750879550505050505092915050565b600061129082611621565b61129a818561165b565b93506112aa8185602086016116c9565b6112b38161172a565b840191505092915050565b60006112c982611616565b6112d3818561164a565b93506112e38185602086016116c9565b6112ec8161172a565b840191505092915050565b600061130282611616565b61130c818561165b565b935061131c8185602086016116c9565b6113258161172a565b840191505092915050565b6000608083016000830151848203600086015261134d82826112be565b9150506020830151848203602086015261136782826112be565b915050604083015161137c60408601826111f2565b50606083015161138f606086018261139a565b508091505092915050565b6113a3816116b0565b82525050565b6113b2816116b0565b82525050565b6113c96113c4826116b0565b611720565b82525050565b60006113db82866113b8565b6020820191506113eb82856111db565b6014820191506113fb82846113b8565b602082019150819050949350505050565b60006020820190506114216000830184611201565b92915050565b600060208201905081810360008301526114418184611210565b905092915050565b600060608201905081810360008301526114638186611285565b905081810360208301526114778185611285565b90506114866040830184611201565b949350505050565b600060808201905081810360008301526114a88187611285565b905081810360208301526114bc8186611285565b90506114cb6040830185611201565b6114d860608301846113a9565b95945050505050565b600060808201905081810360008301526114fb81876112f7565b9050818103602083015261150f81866112f7565b905061151e6040830185611201565b61152b60608301846113a9565b95945050505050565b600060208201905061154960008301846113a9565b92915050565b600060808201905061156460008301876113a9565b81810360208301526115768186611285565b9050818103604083015261158a8185611285565b905061159960608301846113a9565b95945050505050565b6000604051905081810181811067ffffffffffffffff821117156115c557600080fd5b8060405250919050565b600067ffffffffffffffff8211156115e657600080fd5b601f19601f8301169050602081019050919050565b6000819050602082019050919050565b600081519050919050565b600081519050919050565b600081519050919050565b6000602082019050919050565b600082825260208201905092915050565b600082825260208201905092915050565b600082825260208201905092915050565b600061167782611690565b9050919050565b600061168982611690565b9050919050565b600073ffffffffffffffffffffffffffffffffffffffff82169050919050565b6000819050919050565b82818337600083830152505050565b60005b838110156116e75780820151818401526020810190506116cc565b838111156116f6576000848401525b50505050565b60006117078261170e565b9050919050565b60006117198261173b565b9050919050565b6000819050919050565b6000601f19601f8301169050919050565b60008160601b9050919050565b6117518161166c565b811461175c57600080fd5b50565b611768816116b0565b811461177357600080fd5b5056fea365627a7a72315820e3f881a07b5d9c65878dc026e530d1fce9dea517505093fd35007342b82567a36c6578706572696d656e74616cf564736f6c63430005100040",
  "source": "// SPDX-License-Identifier: UNLICENSED\r\n\r\npragma solidity >=0.4.22 <0.9.0;\r\npragma experimental ABIEncoderV2;\r\n\r\ncontract BlogFactory {\r\n    uint256 blogCount;\r\n\r\n    event NewBlog(\r\n        uint256 blogId,\r\n        string title,\r\n        string content,\r\n        uint256 blogHash\r\n    );\r\n\r\n    struct Blog {\r\n        string title;\r\n        string content;\r\n        address publisher;\r\n        uint256 blogHash;\r\n        //We have to add timestap later....\r\n    }\r\n\r\n    Blog[] public blogs;\r\n\r\n    uint256 randNonce = 0; // for Generating BlogHash\r\n    // declare mappings here\r\n    mapping(uint256 => address) public blogToOwner;\r\n    mapping(address => uint256) public userBlogCount;\r\n    mapping(uint256 => Blog) public blogHashToBlog;\r\n\r\n    function _publishBlog(\r\n        string memory _title,\r\n        string memory _content,\r\n        uint256 _blogHash\r\n    ) private {\r\n        blogs.push(Blog(_title, _content, msg.sender, _blogHash));\r\n        uint256 id = blogs.length - 1;\r\n        blogHashToBlog[_blogHash] = blogs[id];\r\n        blogToOwner[id] = msg.sender;\r\n        userBlogCount[msg.sender]++;\r\n        blogCount += 1;\r\n        emit NewBlog(id, _title, _content, _blogHash);\r\n    }\r\n\r\n    function _generateBlogHash() internal returns (uint256) {\r\n        randNonce++;\r\n        return\r\n            uint256(\r\n                keccak256(\r\n                    abi.encodePacked(block.timestamp, msg.sender, randNonce)\r\n                )\r\n            );\r\n    }\r\n\r\n    function createBlog(string memory _title, string memory _content) public {\r\n        //uint randDna = _generateBlogHash(_name);\r\n        uint256 blogHash = _generateBlogHash();\r\n        _publishBlog(_title, _content, blogHash);\r\n    }\r\n\r\n    function getBlog(uint256 blogIndex)\r\n        public\r\n        view\r\n        returns (\r\n            string memory,\r\n            string memory,\r\n            address,\r\n            uint256\r\n        )\r\n    {\r\n        return (\r\n            blogs[blogIndex].title,\r\n            blogs[blogIndex].content,\r\n            blogs[blogIndex].publisher,\r\n            blogs[blogIndex].blogHash\r\n        );\r\n    }\r\n\r\n    function getBlogCount() public view returns (uint256) {\r\n        return blogCount;\r\n    }\r\n\r\n    function getAllBlogs() public view returns (Blog[] memory) {\r\n        return blogs;\r\n    }\r\n\r\n    function st2num(string memory numString) public pure returns (uint256) {\r\n        uint256 val = 0;\r\n        bytes memory stringBytes = bytes(numString);\r\n        for (uint256 i = 0; i < stringBytes.length; i++) {\r\n            uint256 exp = stringBytes.length - i;\r\n            bytes1 ival = stringBytes[i];\r\n            uint8 uval = uint8(ival);\r\n            uint256 jval = uval - uint256(0x30);\r\n\r\n            val += (uint256(jval) * (10**(exp - 1)));\r\n        }\r\n        return val;\r\n    }\r\n\r\n    function getBlogFromBlogHash(string memory _blogHash)\r\n        public\r\n        view\r\n        returns (string memory, string memory, address)\r\n    {\r\n        uint256 bloghashInt = st2num(_blogHash);\r\n        return (blogHashToBlog[bloghashInt].title, blogHashToBlog[bloghashInt].content,blogHashToBlog[bloghashInt].publisher) ;\r\n    }\r\n}\r\n",
  "sourcePath": "D:\\project\\blockchain\\blogweb\\src\\contracts\\blogFactory.sol",
  "compiler": {
    "name": "solc",
    "version": "0.5.16+commit.9c3226ce.Emscripten.clang"
  },
  "schemaVersion": "3.4.4",
  "updatedAt": "2022-02-07T13:06:26.181Z",
  "networkType": "ethereum",
  "devdoc": {
    "methods": {}
  },
  "userdoc": {
    "methods": {}
  }
}