{
  "contractName": "BlogFactory",
  "abi": [
    {
      "anonymous": false,
      "inputs": [
        {
          "indexed": false,
          "internalType": "uint256",
          "name": "blogId",
          "type": "uint256"
        },
        {
          "indexed": false,
          "internalType": "string",
          "name": "title",
          "type": "string"
        },
        {
          "indexed": false,
          "internalType": "string",
          "name": "content",
          "type": "string"
        },
        {
          "indexed": false,
          "internalType": "uint256",
          "name": "blogHash",
          "type": "uint256"
        }
      ],
      "name": "NewBlog",
      "type": "event"
    },
    {
      "constant": true,
      "inputs": [
        {
          "internalType": "uint256",
          "name": "",
          "type": "uint256"
        }
      ],
      "name": "blogHashToBlog",
      "outputs": [
        {
          "internalType": "string",
          "name": "title",
          "type": "string"
        },
        {
          "internalType": "string",
          "name": "content",
          "type": "string"
        },
        {
          "internalType": "address",
          "name": "publisher",
          "type": "address"
        },
        {
          "internalType": "uint256",
          "name": "blogHash",
          "type": "uint256"
        }
      ],
      "payable": false,
      "stateMutability": "view",
      "type": "function"
    },
    {
      "constant": true,
      "inputs": [
        {
          "internalType": "uint256",
          "name": "",
          "type": "uint256"
        }
      ],
      "name": "blogToOwner",
      "outputs": [
        {
          "internalType": "address",
          "name": "",
          "type": "address"
        }
      ],
      "payable": false,
      "stateMutability": "view",
      "type": "function"
    },
    {
      "constant": true,
      "inputs": [
        {
          "internalType": "uint256",
          "name": "",
          "type": "uint256"
        }
      ],
      "name": "blogs",
      "outputs": [
        {
          "internalType": "string",
          "name": "title",
          "type": "string"
        },
        {
          "internalType": "string",
          "name": "content",
          "type": "string"
        },
        {
          "internalType": "address",
          "name": "publisher",
          "type": "address"
        },
        {
          "internalType": "uint256",
          "name": "blogHash",
          "type": "uint256"
        }
      ],
      "payable": false,
      "stateMutability": "view",
      "type": "function"
    },
    {
      "constant": true,
      "inputs": [
        {
          "internalType": "address",
          "name": "",
          "type": "address"
        }
      ],
      "name": "userBlogCount",
      "outputs": [
        {
          "internalType": "uint256",
          "name": "",
          "type": "uint256"
        }
      ],
      "payable": false,
      "stateMutability": "view",
      "type": "function"
    },
    {
      "constant": false,
      "inputs": [
        {
          "internalType": "string",
          "name": "_title",
          "type": "string"
        },
        {
          "internalType": "string",
          "name": "_content",
          "type": "string"
        }
      ],
      "name": "createBlog",
      "outputs": [],
      "payable": false,
      "stateMutability": "nonpayable",
      "type": "function"
    },
    {
      "constant": true,
      "inputs": [
        {
          "internalType": "uint256",
          "name": "blogIndex",
          "type": "uint256"
        }
      ],
      "name": "getBlog",
      "outputs": [
        {
          "internalType": "string",
          "name": "",
          "type": "string"
        },
        {
          "internalType": "string",
          "name": "",
          "type": "string"
        },
        {
          "internalType": "address",
          "name": "",
          "type": "address"
        },
        {
          "internalType": "uint256",
          "name": "",
          "type": "uint256"
        }
      ],
      "payable": false,
      "stateMutability": "view",
      "type": "function"
    },
    {
      "constant": true,
      "inputs": [],
      "name": "getBlogCount",
      "outputs": [
        {
          "internalType": "uint256",
          "name": "",
          "type": "uint256"
        }
      ],
      "payable": false,
      "stateMutability": "view",
      "type": "function"
    },
    {
      "constant": true,
      "inputs": [],
      "name": "getAllBlogs",
      "outputs": [
        {
          "components": [
            {
              "internalType": "string",
              "name": "title",
              "type": "string"
            },
            {
              "internalType": "string",
              "name": "content",
              "type": "string"
            },
            {
              "internalType": "address",
              "name": "publisher",
              "type": "address"
            },
            {
              "internalType": "uint256",
              "name": "blogHash",
              "type": "uint256"
            }
          ],
          "internalType": "struct BlogFactory.Blog[]",
          "name": "",
          "type": "tuple[]"
        }
      ],
      "payable": false,
      "stateMutability": "view",
      "type": "function"
    },
    {
      "constant": true,
      "inputs": [
        {
          "internalType": "string",
          "name": "numString",
          "type": "string"
        }
      ],
      "name": "st2num",
      "outputs": [
        {
          "internalType": "uint256",
          "name": "",
          "type": "uint256"
        }
      ],
      "payable": false,
      "stateMutability": "pure",
      "type": "function"
    },
    {
      "constant": true,
      "inputs": [
        {
          "internalType": "string",
          "name": "_blogHash",
          "type": "string"
        }
      ],
      "name": "getBlogFromBlogHash",
      "outputs": [
        {
          "components": [
            {
              "internalType": "string",
              "name": "title",
              "type": "string"
            },
            {
              "internalType": "string",
              "name": "content",
              "type": "string"
            },
            {
              "internalType": "address",
              "name": "publisher",
              "type": "address"
            },
            {
              "internalType": "uint256",
              "name": "blogHash",
              "type": "uint256"
            }
          ],
          "internalType": "struct BlogFactory.Blog",
          "name": "",
          "type": "tuple"
        }
      ],
      "payable": false,
      "stateMutability": "view",
      "type": "function"
    }
  ],
  "bytecode": "0x6080604052600060025534801561001557600080fd5b50611861806100256000396000f3fe608060405234801561001057600080fd5b506004361061009e5760003560e01c8063c1e4158611610066578063c1e4158614610199578063c4c74700146101b5578063c8b71c95146101d3578063d4868baa146101f1578063d7e85046146102245761009e565b80635a673b8f146100a35780637636da28146100d657806379cd90551461010657806380f052d8146101365780638e4390cc14610169575b600080fd5b6100bd60048036036100b891908101906111ff565b610254565b6040516100cd9493929190611567565b60405180910390f35b6100f060048036036100eb9190810190611152565b6103d4565b6040516100fd91906115ba565b60405180910390f35b610120600480360361011b9190810190611152565b6105b3565b60405161012d91906115dc565b60405180910390f35b610150600480360361014b91908101906111ff565b61062d565b6040516101609493929190611567565b60405180910390f35b610183600480360361017e91908101906111ff565b6107ba565b60405161019091906114d7565b60405180910390f35b6101b360048036036101ae9190810190611193565b6107ed565b005b6101bd610809565b6040516101ca91906114f2565b60405180910390f35b6101db610a0c565b6040516101e891906115dc565b60405180910390f35b61020b600480360361020691908101906111ff565b610a15565b60405161021b9493929190611514565b60405180910390f35b61023e60048036036102399190810190611129565b610bfc565b60405161024b91906115dc565b60405180910390f35b6005602052806000526040600020600091509050806000018054600181600116156101000203166002900480601f0160208091040260200160405190810160405280929190818152602001828054600181600116156101000203166002900480156103005780601f106102d557610100808354040283529160200191610300565b820191906000526020600020905b8154815290600101906020018083116102e357829003601f168201915b505050505090806001018054600181600116156101000203166002900480601f01602080910402602001604051908101604052809291908181526020018280546001816001161561010002031660029004801561039e5780601f106103735761010080835404028352916020019161039e565b820191906000526020600020905b81548152906001019060200180831161038157829003601f168201915b5050505050908060020160009054906101000a900473ffffffffffffffffffffffffffffffffffffffff16908060030154905084565b6103dc610f41565b60006103e7836105b3565b905060056000828152602001908152602001600020604051806080016040529081600082018054600181600116156101000203166002900480601f0160208091040260200160405190810160405280929190818152602001828054600181600116156101000203166002900480156104a05780601f10610475576101008083540402835291602001916104a0565b820191906000526020600020905b81548152906001019060200180831161048357829003601f168201915b50505050508152602001600182018054600181600116156101000203166002900480601f0160208091040260200160405190810160405280929190818152602001828054600181600116156101000203166002900480156105425780601f1061051757610100808354040283529160200191610542565b820191906000526020600020905b81548152906001019060200180831161052557829003601f168201915b505050505081526020016002820160009054906101000a900473ffffffffffffffffffffffffffffffffffffffff1673ffffffffffffffffffffffffffffffffffffffff1673ffffffffffffffffffffffffffffffffffffffff168152602001600382015481525050915050919050565b60008060009050606083905060008090505b815181101561062257600081835103905060008383815181106105e457fe5b602001015160f81c60f81b905060008160f81c9050600060308260ff1603905060018403600a0a8102870196505050505080806001019150506105c5565b508192505050919050565b6001818154811061063a57fe5b9060005260206000209060040201600091509050806000018054600181600116156101000203166002900480601f0160208091040260200160405190810160405280929190818152602001828054600181600116156101000203166002900480156106e65780601f106106bb576101008083540402835291602001916106e6565b820191906000526020600020905b8154815290600101906020018083116106c957829003601f168201915b505050505090806001018054600181600116156101000203166002900480601f0160208091040260200160405190810160405280929190818152602001828054600181600116156101000203166002900480156107845780601f1061075957610100808354040283529160200191610784565b820191906000526020600020905b81548152906001019060200180831161076757829003601f168201915b5050505050908060020160009054906101000a900473ffffffffffffffffffffffffffffffffffffffff16908060030154905084565b60036020528060005260406000206000915054906101000a900473ffffffffffffffffffffffffffffffffffffffff1681565b60006107f7610c14565b9050610804838383610c5d565b505050565b60606001805480602002602001604051908101604052809291908181526020016000905b82821015610a035783829060005260206000209060040201604051806080016040529081600082018054600181600116156101000203166002900480601f0160208091040260200160405190810160405280929190818152602001828054600181600116156101000203166002900480156108e95780601f106108be576101008083540402835291602001916108e9565b820191906000526020600020905b8154815290600101906020018083116108cc57829003601f168201915b50505050508152602001600182018054600181600116156101000203166002900480601f01602080910402602001604051908101604052809291908181526020018280546001816001161561010002031660029004801561098b5780601f106109605761010080835404028352916020019161098b565b820191906000526020600020905b81548152906001019060200180831161096e57829003601f168201915b505050505081526020016002820160009054906101000a900473ffffffffffffffffffffffffffffffffffffffff1673ffffffffffffffffffffffffffffffffffffffff1673ffffffffffffffffffffffffffffffffffffffff1681526020016003820154815250508152602001906001019061082d565b50505050905090565b60008054905090565b60608060008060018581548110610a2857fe5b906000526020600020906004020160000160018681548110610a4657fe5b906000526020600020906004020160010160018781548110610a6457fe5b906000526020600020906004020160020160009054906101000a900473ffffffffffffffffffffffffffffffffffffffff1660018881548110610aa357fe5b906000526020600020906004020160030154838054600181600116156101000203166002900480601f016020809104026020016040519081016040528092919081815260200182805460018160011615610100020316600290048015610b4a5780601f10610b1f57610100808354040283529160200191610b4a565b820191906000526020600020905b815481529060010190602001808311610b2d57829003601f168201915b50505050509350828054600181600116156101000203166002900480601f016020809104026020016040519081016040528092919081815260200182805460018160011615610100020316600290048015610be65780601f10610bbb57610100808354040283529160200191610be6565b820191906000526020600020905b815481529060010190602001808311610bc957829003601f168201915b5050505050925093509350935093509193509193565b60046020528060005260406000206000915090505481565b60006002600081548092919060010191905055504233600254604051602001610c3f9392919061149a565b6040516020818303038152906040528051906020012060001c905090565b600160405180608001604052808581526020018481526020013373ffffffffffffffffffffffffffffffffffffffff16815260200183815250908060018154018082558091505090600182039060005260206000209060040201600090919290919091506000820151816000019080519060200190610cdd929190610f7f565b506020820151816001019080519060200190610cfa929190610f7f565b5060408201518160020160006101000a81548173ffffffffffffffffffffffffffffffffffffffff021916908373ffffffffffffffffffffffffffffffffffffffff1602179055506060820151816003015550505060006001808054905003905060018181548110610d6857fe5b90600052602060002090600402016005600084815260200190815260200160002060008201816000019080546001816001161561010002031660029004610db0929190610fff565b5060018201816001019080546001816001161561010002031660029004610dd8929190610fff565b506002820160009054906101000a900473ffffffffffffffffffffffffffffffffffffffff168160020160006101000a81548173ffffffffffffffffffffffffffffffffffffffff021916908373ffffffffffffffffffffffffffffffffffffffff16021790555060038201548160030155905050336003600083815260200190815260200160002060006101000a81548173ffffffffffffffffffffffffffffffffffffffff021916908373ffffffffffffffffffffffffffffffffffffffff160217905550600460003373ffffffffffffffffffffffffffffffffffffffff1673ffffffffffffffffffffffffffffffffffffffff16815260200190815260200160002060008154809291906001019190505550600160008082825401925050819055507f236cc72ba89033532459a768f0e45ade370ea0b1fdc05782a679700686b366cf81858585604051610f3394939291906115f7565b60405180910390a150505050565b60405180608001604052806060815260200160608152602001600073ffffffffffffffffffffffffffffffffffffffff168152602001600081525090565b828054600181600116156101000203166002900490600052602060002090601f016020900481019282601f10610fc057805160ff1916838001178555610fee565b82800160010185558215610fee579182015b82811115610fed578251825591602001919060010190610fd2565b5b509050610ffb9190611086565b5090565b828054600181600116156101000203166002900490600052602060002090601f016020900481019282601f106110385780548555611075565b8280016001018555821561107557600052602060002091601f016020900482015b82811115611074578254825591600101919060010190611059565b5b5090506110829190611086565b5090565b6110a891905b808211156110a457600081600090555060010161108c565b5090565b90565b6000813590506110ba816117f0565b92915050565b600082601f8301126110d157600080fd5b81356110e46110df82611677565b61164a565b9150808252602083016020830185838301111561110057600080fd5b61110b838284611762565b50505092915050565b60008135905061112381611807565b92915050565b60006020828403121561113b57600080fd5b6000611149848285016110ab565b91505092915050565b60006020828403121561116457600080fd5b600082013567ffffffffffffffff81111561117e57600080fd5b61118a848285016110c0565b91505092915050565b600080604083850312156111a657600080fd5b600083013567ffffffffffffffff8111156111c057600080fd5b6111cc858286016110c0565b925050602083013567ffffffffffffffff8111156111e957600080fd5b6111f5858286016110c0565b9150509250929050565b60006020828403121561121157600080fd5b600061121f84828501611114565b91505092915050565b600061123483836113fb565b905092915050565b61124d61124882611726565b6117a4565b82525050565b61125c81611714565b82525050565b61126b81611714565b82525050565b600061127c826116b3565b61128681856116e1565b935083602082028501611298856116a3565b8060005b858110156112d457848403895281516112b58582611228565b94506112c0836116d4565b925060208a0199505060018101905061129c565b50829750879550505050505092915050565b60006112f1826116c9565b6112fb8185611703565b935061130b818560208601611771565b611314816117d2565b840191505092915050565b600061132a826116be565b61133481856116f2565b9350611344818560208601611771565b61134d816117d2565b840191505092915050565b6000611363826116be565b61136d8185611703565b935061137d818560208601611771565b611386816117d2565b840191505092915050565b600060808301600083015184820360008601526113ae828261131f565b915050602083015184820360208601526113c8828261131f565b91505060408301516113dd6040860182611253565b5060608301516113f06060860182611465565b508091505092915050565b60006080830160008301518482036000860152611418828261131f565b91505060208301518482036020860152611432828261131f565b91505060408301516114476040860182611253565b50606083015161145a6060860182611465565b508091505092915050565b61146e81611758565b82525050565b61147d81611758565b82525050565b61149461148f82611758565b6117c8565b82525050565b60006114a68286611483565b6020820191506114b6828561123c565b6014820191506114c68284611483565b602082019150819050949350505050565b60006020820190506114ec6000830184611262565b92915050565b6000602082019050818103600083015261150c8184611271565b905092915050565b6000608082019050818103600083015261152e81876112e6565b9050818103602083015261154281866112e6565b90506115516040830185611262565b61155e6060830184611474565b95945050505050565b600060808201905081810360008301526115818187611358565b905081810360208301526115958186611358565b90506115a46040830185611262565b6115b16060830184611474565b95945050505050565b600060208201905081810360008301526115d48184611391565b905092915050565b60006020820190506115f16000830184611474565b92915050565b600060808201905061160c6000830187611474565b818103602083015261161e81866112e6565b9050818103604083015261163281856112e6565b90506116416060830184611474565b95945050505050565b6000604051905081810181811067ffffffffffffffff8211171561166d57600080fd5b8060405250919050565b600067ffffffffffffffff82111561168e57600080fd5b601f19601f8301169050602081019050919050565b6000819050602082019050919050565b600081519050919050565b600081519050919050565b600081519050919050565b6000602082019050919050565b600082825260208201905092915050565b600082825260208201905092915050565b600082825260208201905092915050565b600061171f82611738565b9050919050565b600061173182611738565b9050919050565b600073ffffffffffffffffffffffffffffffffffffffff82169050919050565b6000819050919050565b82818337600083830152505050565b60005b8381101561178f578082015181840152602081019050611774565b8381111561179e576000848401525b50505050565b60006117af826117b6565b9050919050565b60006117c1826117e3565b9050919050565b6000819050919050565b6000601f19601f8301169050919050565b60008160601b9050919050565b6117f981611714565b811461180457600080fd5b50565b61181081611758565b811461181b57600080fd5b5056fea365627a7a7231582086fb12d476de460136b53268c6b3c5693717340678c20a06a6020fe20cd14d246c6578706572696d656e74616cf564736f6c63430005100040",
  "source": "// SPDX-License-Identifier: UNLICENSED\r\n\r\npragma solidity >=0.4.22 <0.9.0;\r\npragma experimental ABIEncoderV2;\r\n\r\ncontract BlogFactory {\r\n    uint256 blogCount;\r\n\r\n    event NewBlog(\r\n        uint256 blogId,\r\n        string title,\r\n        string content,\r\n        uint256 blogHash\r\n    );\r\n\r\n    struct Blog {\r\n        string title;\r\n        string content;\r\n        address publisher;\r\n        uint256 blogHash;\r\n        //We have to add timestap later....\r\n    }\r\n\r\n    Blog[] public blogs;\r\n\r\n    uint256 randNonce = 0; // for Generating BlogHash\r\n    // declare mappings here\r\n    mapping(uint256 => address) public blogToOwner;\r\n    mapping(address => uint256) public userBlogCount;\r\n    mapping(uint256 => Blog) public blogHashToBlog;\r\n\r\n    function _publishBlog(\r\n        string memory _title,\r\n        string memory _content,\r\n        uint256 _blogHash\r\n    ) private {\r\n        blogs.push(Blog(_title, _content, msg.sender, _blogHash));\r\n        uint256 id = blogs.length - 1;\r\n        blogHashToBlog[_blogHash] = blogs[id];\r\n        blogToOwner[id] = msg.sender;\r\n        userBlogCount[msg.sender]++;\r\n        blogCount += 1;\r\n        emit NewBlog(id, _title, _content, _blogHash);\r\n    }\r\n\r\n    function _generateBlogHash() internal returns (uint256) {\r\n        randNonce++;\r\n        return\r\n            uint256(\r\n                keccak256(\r\n                    abi.encodePacked(block.timestamp, msg.sender, randNonce)\r\n                )\r\n            );\r\n    }\r\n\r\n    function createBlog(string memory _title, string memory _content) public {\r\n        //uint randDna = _generateBlogHash(_name);\r\n        uint256 blogHash = _generateBlogHash();\r\n        _publishBlog(_title, _content, blogHash);\r\n    }\r\n\r\n    function getBlog(uint256 blogIndex)\r\n        public\r\n        view\r\n        returns (\r\n            string memory,\r\n            string memory,\r\n            address,\r\n            uint256\r\n        )\r\n    {\r\n        return (\r\n            blogs[blogIndex].title,\r\n            blogs[blogIndex].content,\r\n            blogs[blogIndex].publisher,\r\n            blogs[blogIndex].blogHash\r\n        );\r\n    }\r\n\r\n    function getBlogCount() public view returns (uint256) {\r\n        return blogCount;\r\n    }\r\n\r\n    function getAllBlogs() public view returns (Blog[] memory) {\r\n        return blogs;\r\n    }\r\n\r\n    function st2num(string memory numString) public pure returns (uint256) {\r\n        uint256 val = 0;\r\n        bytes memory stringBytes = bytes(numString);\r\n        for (uint256 i = 0; i < stringBytes.length; i++) {\r\n            uint256 exp = stringBytes.length - i;\r\n            bytes1 ival = stringBytes[i];\r\n            uint8 uval = uint8(ival);\r\n            uint256 jval = uval - uint256(0x30);\r\n\r\n            val += (uint256(jval) * (10**(exp - 1)));\r\n        }\r\n        return val;\r\n    }\r\n\r\n    function getBlogFromBlogHash(string memory _blogHash)\r\n        public\r\n        view\r\n        returns (Blog memory)\r\n    {\r\n        uint256 bloghashInt = st2num(_blogHash);\r\n        return blogHashToBlog[bloghashInt];\r\n    }\r\n}\r\n",
  "sourcePath": "D:\\project\\blockchain\\blog\\src\\contracts\\blogFactory.sol",
  "compiler": {
    "name": "solc",
    "version": "0.5.16+commit.9c3226ce.Emscripten.clang"
  },
  "schemaVersion": "3.4.4",
  "updatedAt": "2022-02-07T12:02:58.430Z",
  "devdoc": {
    "methods": {}
  },
  "userdoc": {
    "methods": {}
  }
}